S00B00004C34442E7372656355
S11300000C9465000C9477000C9477000C943701E1
S11300100C9477000C9477000C9477000C94770080
S11300200C9477000C9477000C9477000C94770070
S11300300C9477000C9477000C9477000C94770060
S11300400C9477000C94BC010C9477000C9477000A
S11300500C9477000C9477000C9477000C94770040
S11300600C9477000C9477000C9477000C94770030
S11300700C9477000C9477000C9477000C94770020
S11300800C94D3010C9477000C9477000C947700B3
S11300900C9477000C9477000C9477000C94770000
S11300A00C9477000C9477000C94770005A84CCD41
S11300B0B2D44EB93836A9020C50B9918688083C9E
S11300C0A6AAAA2ABE000000803F11241FBECFEFBB
S11300D0DAE0DEBFCDBF21E0A0E0B1E001C01D92B7
S11300E0AF30B207E1F70E94C3000C944B050C94A7
S11300F00000E1E6F0E080E880831082E1E8F0E0CF
S113010080818B7F808380818D7F808380818160EB
S11301108083808180618083808188608083E0E83F
S1130120F0E080818260808380818160808380812F
S11301308860808380818B7F8083E1E9F0E0808127
S11301408460808380818D7F8083808181608083CF
S113015080818F7E8083808188608083E0E9F0E005
S113016080818D7F808380818E7F8083EFE6F0E0C5
S1130170808182608083E1E7F0E080818260808317
S1130180EA9A789408950E9479000E94E70143E076
S11301906EE381E00E94F80108E810E00F2EF8EC0D
S11301A0CF2ED12CF02D0F2EFCE8EF2EF12CF02DBC
S11301B080910001909101010197D1F7F801D1825A
S11301C0C082C081D181609102017091030180904D
S11301D0080190900901A0900A01B0900B01660FEC
S11301E0771F072E000C880B990B0E94C2032AED7F
S11301F03FE049E450E40E944E04A50194010E94AA
S11302004E0420E030E048E453E40E944E0420E031
S113021034E244E75BE40E941F030E94BB044B01E9
S11302205C01BE0180E090E00E94C0032B013C0110
S113023020E030E040E85FE3C501B4010E94B3026E
S11302409B01AC01C301B2010E944E0420E030E0E6
S113025040E05FE30E944E040E949103F701718322
S11302606083279A1092010110920001A1CF1F927E
S11302700F920FB60F9211242F933F934F935F93D6
S11302806F937F938F939F93AF93BF93CF93DF939A
S1130290EF93FF9363E08CE091E00E944E026E9A2C
S11302A09EB180E489278EB9CCE0D1E08881698150
S11302B070E0762F6627680F711D072E000C880BDF
S11302C0990B0E94C2032DEC3CEC4CEC5DE30E94C4
S11302D04E04609308017093090180930A0190937E
S11302E00B016A8170E080E090E00E94C2032AE082
S11302F037ED43E25CE30E944E0460930401709383
S113030005018093060190930701609104017091A7
S11303100501809106019091070120E034E244E751
S11303205BE40E944E0420E030E040E85AE30E947F
S11303304E040E9491037093990060939800109268
S113034095001092940081E090E0909301018093D5
S11303500001FF91EF91DF91CF91BF91AF919F91F8
S11303608F917F916F915F914F913F912F910F905A
S11303700FBE0F901F9018951F920F920FB60F92F9
S113038011248F939F938091020190910301019610
S113039090930301809302019F918F910F900FBE60
S11303A00F901F9018951F920F920FB60F92112461
S11303B08F939F9327986A9A9EB184E089278EB978
S11303C09F918F910F900FBE0F901F901895589A80
S11303D0599A5A9A8CE08093B800E9E6F0E080815B
S11303E08062808380818F7E8083EA9A78940895E6
S11303F01F93CF93DF93182FD62FC42F0E94E701AA
S113040094EA9093BC00ECEBF0E090819923ECF734
S113041090E59093BB0094E89093BC00ECEBF0E083
S113042090819923ECF79091B900987F903229F448
S113043084E98093BC0080E02DC081E08093BB0000
S113044084E88093BC00ECEBF0E090819923ECF716
S11304501093BB0084E88093BC00ECEBF0E0808157
S11304608823ECF7D093BB0084E88093BC00ECEBCA
S1130470F0E080818823ECF7C093BB0084E880938C
S1130480BC00ECEBF0E080818823ECF784E98093F6
S1130490BC0081E0DF91CF911F910895CF93DF934A
S11304A09C0184EA8093BC00ECEBF0E090819923FA
S11304B0ECF781E58093BB0084E88093BC00ECEB0F
S11304C0F0E090819923ECF78091B900887F88341B
S11304D029F484E98093BC0080E041C084EC8093DB
S11304E0BC00ECEBF0E090819923ECF74091BB0069
S11304F0461309C0842F90E001971816190644F09A
S113050040E050E01AC084E98093BC0080E027C03A
S1130510D90150E041505109B901640F751FECEB4A
S1130520F0E084ECCBEBD0E0808390819923ECF76E
S113053098819D93A617B707B9F784E88093BC0008
S1130540ECEBF0E090819923ECF78091BB00F9018A
S1130550E40FF51F808384E98093BC0081E0DF9180
S1130560CF9108955058BB27AA270E94CA020C9421
S113057014040E94060438F00E940D0420F039F49B
S11305809F3F19F426F40C9403040EF4E095E7FB62
S11305900C94FD03E92F0E94250458F3BA1762074F
S11305A073078407950720F079F4A6F50C944704A3
S11305B00EF4E0950B2EBA2FA02D0B01B90190017A
S11305C00C01CA01A0011124FF27591B99F0593FBE
S11305D050F4503E68F11A16F040A22F232F342F06
S11305E04427585FF3CF469537952795A795F04054
S11305F05395C9F77EF41F16BA0B620B730B840B69
S1130600BAF09150A1F0FF0FBB1F661F771F881F20
S1130610C2F70EC0BA0F621F731F841F48F4879578
S113062077956795B795F7959E3F08F0B0CF93956A
S1130630880F08F09927EE0F9795879508950E94E3
S113064033030C9414040E940D0458F00E94060411
S113065040F029F45F3F29F00C94FD0351110C94F0
S113066048040C9403040E94250468F39923B1F30D
S1130670552391F3951B550BBB27AA2762177307C4
S1130680840738F09F5F5F4F220F331F441FAA1F58
S1130690A9F335D00E2E3AF0E0E832D09150504014
S11306A0E695001CCAF72BD0FE2F29D0660F771FC2
S11306B0881FBB1F261737074807AB07B0E809F0A8
S11306C0BB0B802DBF01FF2793585F4F3AF09E3F2D
S11306D0510578F00C94FD030C9448045F3FE4F357
S11306E0983ED4F3869577956795B795F7959F5F70
S11306F0C9F7880F911D9695879597F90895E1E0BC
S1130700660F771F881FBB1F621773078407BA071A
S113071020F0621B730B840BBA0BEE1F88F7E09575
S113072008950E942D0488F09F5798F0B92F9927B7
S1130730B751B0F0E1F0660F771F881F991F1AF0C8
S1130740BA95C9F714C0B13091F00E944704B1E0E2
S113075008950C944704672F782F8827B85F39F0E1
S1130760B93FCCF3869577956795B395D9F73EF461
S113077090958095709561957F4F8F4F9F4F089509
S1130780E89409C097FB3EF4909580957095619527
S11307907F4F8F4F9F4F9923A9F0F92F96E9BB27DD
S11307A09395F695879577956795B795F111F8CF59
S11307B0FAF4BB0F11F460FF1BC06F5F7F4F8F4FC4
S11307C09F4F16C0882311F096E911C0772321F0BA
S11307D09EE8872F762F05C0662371F096E8862F52
S11307E070E060E02AF09A95660F771F881FDAF7A9
S11307F0880F9695879597F9089597F99F6780E8EC
S113080070E060E008959FEF80EC089500240A945E
S11308101616170618060906089500240A941216D7
S11308201306140605060895092E0394000C11F40A
S1130830882352F0BB0F40F4BF2B11F460FF04C0B7
S11308406F5F7F4F8F4F9F4F089557FD9058440F10
S1130850551F59F05F3F71F04795880F97FB991F1B
S113086061F09F3F79F087950895121613061406D8
S1130870551FF2CF4695F1DF08C016161706180665
S1130880991FF1CF86957105610508940895E89440
S1130890BB2766277727CB0197F908950E94610447
S11308A00C9414040E94060438F00E940D0420F0F5
S11308B0952311F00C94FD030C94030411240C945F
S11308C048040E94250470F3959FC1F3950F50E0EE
S11308D0551F629FF001729FBB27F00DB11D639FEE
S11308E0AA27F00DB11DAA1F649F6627B00DA11D94
S11308F0661F829F2227B00DA11D621F739FB00D3A
S1130900A11D621F839FA00D611D221F749F3327A9
S1130910A00D611D231F849F600D211D822F762F42
S11309206A2F11249F5750409AF0F1F088234AF01F
S1130930EE0FFF1FBB1F661F771F881F915050408B
S1130940A9F79E3F510580F00C94FD030C944804D4
S11309505F3FE4F3983ED4F3869577956795B79512
S1130960F795E7959F5FC1F7FE2B880F911D96952C
S1130970879597F908959F930E94C5040F9007FCEB
S1130980EE5F0C94EE040C9403040E942D04D8F33F
S1130990E894E0E0BB279F57F0F02AED3FE049ECF4
S11309A006C0EE0FBB0F661F771F881F28F0B23AF0
S11309B062077307840728F0B25A620B730B840B27
S11309C0E3959A9572F7803830F49A95BB0F661FB9
S11309D0771F881FD2F790480C940405EF93E0FF2B
S11309E007C0A2EA2AED3FE049EC5FEB0E94CA028D
S11309F00E9414040F90039401FC9058ECEAF0E078
S1130A000C9410059F3F31F0915020F48795779511
S1130A106795B795880F911D9695879597F90895D1
S1130A209F938F937F936F93FF93EF939B01AC01FD
S1130A300E944E04EF91FF910E9424052F913F9153
S1130A404F915F910C944E04DF93CF931F930F93B8
S1130A50FF92EF92DF927B018C01689406C0DA2E3C
S1130A60EF010E946104FE01E894A591259135915E
S1130A7045915591A6F3EF010E94CA02FE01970128
S1130A80A801DA9469F7DF90EF90FF900F911F911E
S10D0A90CF91DF910895F894FFCF91
S9030000FC
